:020000040000fa
:080000000002040000000000f2
:020000040000fa
:10040000cfd121000e7f22000e01880000000000e5
:100410000c00070080b82900010020000f00070031
:10042000000020000000e000020032000000020096
:10043000000000007e8e0200000000000040da0094
:100440000000fe00a05120000000e0000200320089
:10045000002020009001880000000600a102880012
:10046000800078000000eb001a003700e2804000b6
:1004700054a0b4009101ba00e280400054a0b4003e
:100480009102ba00e280400054a0b4000002eb00e8
:10049000472bde00f507b200a6018800602ce100c2
:1004a00008003a000049eb000201e80002003900b0
:1004b0003420ec0002f0a0008301e900f9ff3e00c7
:1004c000040037006128e100010032000082eb00e7
:1004d000040007001101ba000200e000e3ff3a0047
:1004e0000000060004d0a300e20f49001c00390000
:1004f000810278003549ba000201e80002003900a3
:100500003420ec0002f0a0008301e9000f0032006b
:100510002549ba000201e800020039003420ec004d
:1005200002f0a0008301e900080032000400e000ae
:100530000600320015c9ba000201e80002003900c5
:100540003420ec0002f0a0008301e9008180e80083
:1005500054a0b4000300e000e2ff3a0000000600ef
:100560009102ba00055978008301e900f7ff3200d3
:10057000c82ade00055978008301e900f3ff320044
:100580000400e000f1ff320011d9ba00eeff37009d
:100590000040da000000fe00889fbe008004780062
:1005a000006980000000e00003003a00100007002e
:1005b0000000e0000a003500006980000900e0004a
:1005c00002003a00000478000600370000047800ba
:1005d00009004000060007000000e00001003d00a7
:1005e0000084eb00080078004f04be000000060005
:1005f000800078000000e00004003a0020d22000d3
:100600000069880001017800060037000081eb00d6
:10061000c0d12100808f500002003e000169880097
:100620000001eb000200780000000600889fbe0079
:100630008a9fbe00010578000100e000040035003b
:1006400008003c000000e0002000320005003700f8
:1006500060001000e080180002003b0001f02c0058
:100660001a0037000004be006011b8006b092000ba
:100670000982cf00020039000882cf000441b00097
:10068000694252000e00320008003b008281710076
:10069000610164008904d1000884d3008b05e8005f
:1006a0000442e800f9ff3a0005003700080444005e
:1006b00089844c008b05e9000442e900fbff3a0005
:1006c000650007000af0a70001f0a0004f05be007a
:1006d0004f04be0000000600f4ff2f008400370026
:1006e00003f0a200889fbe008a9fbe008c1f780086
:1006f0009a000700a10033006450e1004f0032006f
:100700006420e1005200320003826c0007003b00cd
:100710000905d0000306d000820f54000c065d00ce
:1007200002003900020032008901780003067800d7
:100730008582550004003d000003fd008103fd009b
:100740008502ea008b854200840f720002003b00a4
:1007500060001000e08018006011b8000005eb0098
:100760007a28e1000a00390006007800c75ddd0044
:10077000f707b200878075002d0037008281710075
:100780000a017800610560008180d1000080d300fb
:100790008502e900f9ff3b00060440008784480019
:1007a00002003b0060041400e0841c000988a300e0
:1007b000070032008a81710082817100610164004a
:1007c0008904d1000884d3008b05e80017003700a6
:1007d0000978a30013003a000b00e0001300340076
:1007e0008b05e9000804440089844c000a44740025
:1007f0000978a3000d003a000b00e0000700340068
:100800008b05e9000804440089844c0001003a008b
:100810000b0020000978a300f7ff32000001eb0075
:1008200002003700828171000a0178000a00070087
:100830000cf0a70001f0a000590037006420e1008f
:1008400002003a00838f6c00590033000801be009b
:100850000200be0052003700810020006180550078
:100860000b003d000b00200061fe2f000100e100a5
:100870001d00340082817100610164008904d1008f
:100880000884d3000000e800faff3a00710020005d
:100890006100640003007000020060000900320083
:1008a00061044400e0844c000988a5000500320082
:1008b0008b05e8006808e10002003a008904d100d5
:1008c0000884d300f20f20000258e10005003d002b
:1008d000c75ddd00f907b200898075000800780067
:1008e000000006000bf827008b00780000000500d0
:1008f000889fbe008a9fbe00841f780017000700f3
:100900004f00780011003300f0ff2f00838f6c0040
:1009100006003b00040565000a00a7000800370038
:1009200009f0a6001000200008003700820f5400d4
:10093000838f5c00030039001000200001003e009e
:100940000000200009f0a7000000ea004f05be00eb
:100950004f04be000000e000000006000004be00de
:10096000160007000003be000405be000200be0022
:1009700012000700844f7500000006000200be0050
:100980006450e100050036006420e10002003600fa
:100990000968a30001003a000800be000160a00041
:1009a0004f0678004f05be004f04be000000060051
:1009b000f0ff2f00f1ff2700f9ff3700c70ade0024
:1009c000f107b200f50fb20008003200e1cf42009b
:1009d000020032000170a00024000500810f7000a9
:1009e000010032000408050044000500810f70007a
:1009f00002003a00140005008502e90000004000f2
:100a000081c04800fcff3b000170a00024000500ed
:100a1000889fbe008a9fbe008c9fbe0000017800a8
:100a200081d120001100e0000b003a00c0d120006d
:100a3000c0688800a0688800e1688800b168880004
:100a4000214090000004a000a04098006140900068
:100a50000004a000e0409800e7004100c208de006a
:100a6000c20cdd00b46880002dd22000c0d121006e
:100a70000d05500022002000811f780011000900a0
:100a80000205d80000067800cf007800c308dd001a
:100a9000e48540008001eb0026d2200085d12000b3
:100aa0000100370001027800244090000008a300f4
:100ab000020032000a003700110a78009400780022
:100ac000214090000008a300fbff32000901420012
:100ad000828f500002003900840f5100460031001f
:100ae00094007800848f5000eeff3e00868f500007
:100af00002003900858f5000eaff3900a0688000ad
:100b0000800f52004f003a00858f50004d003a0090
:100b10008301e800e18f5100e2ff36008c8f540022
:100b2000040036008a8f5400020031000b04780064
:100b300012003700614ab8006151b900b0ff2f00c0
:100b4000010020000200500083805800800f5200f6
:100b5000818f5a0002003500090478000700370031
:100b60000d805400f2d12100020040001100090064
:100b70000a80d8000a80b9000004780008007800d4
:100b800085fe070080017800e10f40002d00320053
:100b9000a068800003087800a2688000640041001b
:100ba000a2409000808f5100020032000104a0009a
:100bb000010037000104a100214198000880410094
:100bc0006400500080097800a068880082d120006d
:100bd00002087800a1688000214090000004a00075
:100be000a0409800234090000004a100a04198007c
:100bf00002027800a7ff3700b2688800828f500099
:100c0000090036009200780020d12000a241900017
:100c10000348780081688800140978008040eb0060
:100c2000b068800021409800b0688000000a780019
:100c3000244090000004a00020429800640042007c
:100c4000010037000000eb004f06be004f05be005c
:100c50004f04be000000060064005000b068880029
:100c6000a04090000104a10021409800000006006f
:100c7000889fbe008a9fbe0000057800e4015000f6
:100c800013001000c285de00234090000008a3007e
:100c900004003200b3688800234090000004a100e3
:100ca000a04198000100780059ff07000004780077
:100cb0000000e000170032008a0f500015003200db
:100cc00060b8970008005000c284de00898f55008c
:100cd00001003600890578004259dd008a0078005d
:100ce00008007800290007008a0f5400090031002d
:100cf0004248dd00000044008a0f50000500360025
:100d00000a00500000004400826880009368800060
:100d10000288be00080078004f05be004f04be00e8
:100d2000000006000400fa00e0bf9f00e4815700c5
:100d3000812978000002eb000f0037006fb89700a0
:100d4000904078007fb89700104078000402e800d7
:100d500080cf5000040032008180fb000080fb0047
:100d600000805000070037006fb897000000e800cf
:100d7000e0bf9f009309e800820f5200efff3a00a6
:100d80000000eb000080fa00000006008001eb008c
:100d90000200370061f079008301e800828f510082
:080da000fcff3a000000060010
:020000040000fa
:020000040002f8
:04aff400ffff00005b
:020000040000fa
:020000040002f8
:04aff8002ef800002f
:020000040000fa
:020000040002f8
:04affc00d93f000039
:020000040000fa
:10000800c8020000c8020000c8020000c8020000c0
:10001800c8020000c8020000c8020000c8020000b0
:10002800c8020000c8020000c8020000c8020000a0
:10003800c8020000c8020000c8020000c802000090
:10004800588f0000c8020000c8020000c802000063
:10005800c8020000c8020000c8020000c802000070
:10006800c8020000c8020000c8020000c802000060
:10007800ec920000c8020000c8020000c80200009c
:10008800c8020000c8020000c8020000c802000040
:10009800c8020000c8020000708f0000c8020000fb
:1000a800c8020000c8020000c8020000c802000020
:1000b800c8020000c8020000c8020000c802000010
:1000c800c8020000c8020000c8020000c802000000
:1000d800c8020000c8020000c8020000c8020000f0
:1000e800c8020000c8020000c8020000c8020000e0
:1000f800c8020000c8020000c8020000c8020000d0
:10010800c8020000c8020000c8020000c8020000bf
:10011800c8020000c8020000c8020000c8020000af
:10012800c8020000c8020000c8020000c80200009f
:10013800c8020000c8020000c8020000c80200008f
:10014800c8020000c8020000c8020000c80200007f
:10015800c8020000c8020000c8020000c80200006f
:10016800c8020000c8020000c8020000c80200005f
:10017800c8020000c8020000c8020000c80200004f
:10018800c8020000c8020000c8020000c80200003f
:10019800c8020000c8020000c8020000c80200002f
:1001a800c8020000c8020000c8020000c80200001f
:1001b800c8020000c8020000c8020000c80200000f
:1001c800c8020000c8020000c8020000c8020000ff
:1001d800c8020000c8020000c8020000c8020000ef
:1001e800c8020000c8020000c8020000c8020000df
:0801f800c8020000c80200006b
:020000040000fa
:10020800c8020000c8020000c8020000c8020000be
:10021800c8020000c8020000c8020000c8020000ae
:10022800c8020000c8020000c8020000c80200009e
:10023800c8020000c8020000c8020000c80200008e
:10024800588f0000c8020000c8020000c802000061
:10025800c8020000c8020000c8020000c80200006e
:10026800c8020000c8020000c8020000c80200005e
:10027800ec920000c8020000c8020000c80200009a
:10028800c8020000c8020000c8020000c80200003e
:10029800c8020000c8020000708f0000c8020000f9
:1002a800c8020000c8020000c8020000c80200001e
:1002b800c8020000c8020000c8020000c80200000e
:1002c800c8020000c8020000c8020000c8020000fe
:1002d800c8020000c8020000c8020000c8020000ee
:1002e800c8020000c8020000c8020000c8020000de
:1002f800c8020000c8020000c8020000c8020000ce
:10030800c8020000c8020000c8020000c8020000bd
:10031800c8020000c8020000c8020000c8020000ad
:10032800c8020000c8020000c8020000c80200009d
:10033800c8020000c8020000c8020000c80200008d
:10034800c8020000c8020000c8020000c80200007d
:10035800c8020000c8020000c8020000c80200006d
:10036800c8020000c8020000c8020000c80200005d
:10037800c8020000c8020000c8020000c80200004d
:10038800c8020000c8020000c8020000c80200003d
:10039800c8020000c8020000c8020000c80200002d
:1003a800c8020000c8020000c8020000c80200001d
:1003b800c8020000c8020000c8020000c80200000d
:1003c800c8020000c8020000c8020000c8020000fd
:1003d800c8020000c8020000c8020000c8020000ed
:1003e800c8020000c8020000c8020000c8020000dd
:0803f800c8020000c802000069
:020000040000fa
:100da8004e6f0000206e000065740000776f000031
:100db800726b000073200000666f0000756e000003
:100dc800642e00002054000072790000696e000053
:100dd8006720000061670000616900006e21000063
:100de8000d0a0000004e000065740000776f0000d7
:100df800726b00002873000029200000666f000055
:100e0800756e0000642e0000205400007279000006
:100e1800696e000067200000746f0000206a0000ff
:100e28006f6900006e200000002000007c20000098
:100e3800000d00000a00000020450000727200004a
:100e48006f72000020660000696e0000646900008f
:100e58006e670000206e000065740000776f000068
:100e6800726b00002e2000005472000079690000a7
:100e78006e6700002061000067610000696e000075
:100e88002e2e00002e0d00000a0000004a6f000000
:100e9800696e0000204f00004b2100000d0a000081
:100ea800005300007461000074750000733a00007c
:100eb800200000002e200000436f0000756c000029
:100ec800642000006e6f0000742000006a6f00004c
:100ed800696e000020610000732000006f7200003e
:100ee80070680000616e00002e20000000540000b1
:100ef80072790000696e00006720000061670000d9
:100f0800616900006e2100000d0a0000004d00001c
:100f180075730000742000007472000079200000ce
:100f280061730000206e000065770000206e0000ed
:100f38006f640000652100000d0a0000002e00000b
:100f4800204300006f7500006c640000206e0000f4
:100f58006f740000206a00006f6900006e200000b6
:100f6800736500006c650000637400006564000030
:100f7800206e000065740000776f0000726b00003f
:100f88002e2000000054000072790000696e0000f5
:100f9800672000006e65000078740000206400007f
:100fa80069730000636f00007665000072650000d9
:100fb800642000006e650000747700006f72000006
:100fc8006b2100000d0a0000004300006c65000062
:100fd800616e0000696e00006720000075700000f7
:100fe800206100006e64000020720000657400003b
:100ff80072790000696e00006720000064690000d3
:10100800736300006f7600006572000079210000ac
:101018000d0a0000005200006f75000074650000a2
:1010280072200000537400006172000074650000b3
:1010380064210000204500006e610000626c000021
:10104800696e0000672000006a6f0000696e00008a
:10105800732e00002e2e00000d0a00000020000054
:10106800526f000075740000657200002073000064
:10107800746100007274000020460000616900007d
:101088006c650000642e00002057000065200000f9
:10109800636100006e6e00006f7400002072000033
:1010a8006f75000074650000206600007261000022
:1010b8006d650000730d00000a0000004f6c000011
:1010c800642000004e650000747700006f72000015
:1010d8006b2000004164000064720000657300002a
:1010e80073200000697300003a200000002e000001
:1010f800204f00006c640000204e00006574000062
:10110800776f0000726b00002041000064640000eb
:10111800726500007373000020690000733a0000d4
:10112800002e0000204e000065770000204e0000d1
:1011380065740000776f0000726b000020410000aa
:101148006464000072650000737300002069000089
:101158007320000030780000303000003039000083
:101168000d0a0000002000004a6f0000696e0000b0
:1011780020700000657200006d6900007373000044
:10118800696f00006e20000046610000696c000075
:10119800656400002e2000005765000020630000f1
:1011a800616e00006e6f000074200000616c00002a
:1011b8006c6f0000772000006a6f0000696e000005
:1011c800730d00000a000000576500002068000049
:1011d80061760000652000006c6500006674000000
:1011e8002074000068650000206e0000657400002f
:1011f800776f0000726b00000d0a000000410000cc
:101208006e6f00007468000065720000206e0000b8
:101218006f64000065200000686100007320000012
:101228006c650000667400002074000068650000aa
:10123800206e000065740000776f0000726b00007c
:101248000d0a0000005a00006967000042650000ae
:101258006520000053740000616300006b200000eb
:10126800686100007320000062650000656e000080
:101278002072000065730000657400000d0a00000c
:10128800002000004c65000061760000696e0000d7
:101298006720000074680000652000005a6900009b
:1012a8006762000065650000206e0000657400003c
:1012b800776f0000726b00000d0a00000023000029
:1012c8004f4b00003a0000004c510000492000003c
:1012d800646f000020640000756f00006320000048
:1012e80074610000692000006e6f000064650000f2
:1012f800206e0000686100006e3a00000050000097
:1013080065720000666f0000726d000020470000e3
:10131800726f000075700000204f000070650000bb
:1013280072610000746900006f6e00000d0a000011
:101338000054000072790000696e00006720000008
:10134800746f0000206a00006f6900006e200000c2
:101358006e650000747700006f7200006b2000005b
:1013680061730000206100006e2000006f720000b1
:1013780070680000616e00002e2e00002e0d000027
:101388000a00000054720000796900006e670000ce
:10139800207400006f2000006a6f0000696e000072
:1013a800206e000065740000776f0000726b00000b
:1013b8002061000073200000612000006e650000bd
:1013c800772000006465000076690000636500000e
:1013d800210d00000a000000446100002074000094
:1013e8006869000065740000206c000061700000ee
:1013f800206300006f6e0000672000007375000016
:10140800617400002070000068610000743a0000f8
:1014180000530000686f000072740000204d000047
:10142800414300002054000079700000652000004e
:10143800526e0000746c0000736800006970000050
:10144800200000007c00000043520000440000001f
:1014580052540000520000005246000044000000b0
:10146800554b0000574e000000500000415200004c
:10147800454e00005400000043480000494c00005d
:1014880044200000005500004e4b0000574e00005d
:1014980020000000205500006e680000616e00000a
:1014a800646c000065640000207000007269000030
:1014b8006d69000074690000766500000d0a00007f
:1014c800004900006e6900007420000048610000b7
:1014d8007264000077610000726500000d0a000068
:1014e800005a00006967000062650000652000007e
:1014f800496e0000697400000d0a0000002d00000c
:101508005f2d00005f2d00005f2d00005f2d0000a3
:101518005f2d00005f2d00005f2d00005f2d000093
:101528005f2d00005f2d00005f2d00005f2d000083
:101538005f2d00005f2d00005f2d00005f2d000073
:101548005f2d00005f0d00000a0000005a690000ce
:101558006742000065650000205200006f750000ba
:1015680074650000725f0000454d000042000000f5
:10157800202d0000205200002644000020620000b8
:101588007920000057530000414e00002d4c000008
:101598006162000034310000310d00000a000000d3
:1015a80054720000616e00007363000065690000fa
:1015b80076650000722d00004d5200004632000092
:1015c800344a0000343000000d0a0000000000001a
:1015d800020100000f0f000000050000008000005d
:1015e80010060000000000000000000000000000dd
:1015f800000a0000000000000100000002000000d6
:1016080003000000040000000500000006000000c0
:101618002000000021000000220000000a00000055
:1016280000800000018000000280000003800000ac
:101638000480000005800000068000002080000073
:101648002180000022800000f0000000030100005b
:10165800ffff000000050000050000000600000074
:101668000a0000000800000001000000000000005f
:101678000000000000000000000000000000000062
:101688000200000009000000070000000000000040
:101698000000000000000000000000000000000042
:1016a8000000000000000000000000000000000032
:1016b8000000000000000000000000000000000022
:1016c8000000000000000000000000000000000012
:1016d8000000000000000000000000000000000002
:1016e80000000000000000000000000000000000f2
:1016f80000000000000000000000000000000000e2
:1017080000000000000000000000000000000000d1
:1017180010c1000000400000ce00000000000000e2
:101728007f000000000000000000000078000000ba
:1017380000000000b4000000000000002c010000c0
:10174800000000001c02000000000000fc03000074
:1017580000000000bc070000000000003c0f000073
:10176800000000003c1e0000000000003c3c00009f
:10177800000000003c780000000000003cf0000081
:10178800000000003ce00000010000003cc0000038
:10179800030000003c800000070000003c0000003f
:1017a8000f000000303100003233000034350000f3
:1017b8003637000038390000414200004344000039
:1017c80045460000a00000000004000000a300003f
:0417d8000400000009
:020000040000fa
:1017dc008000eb00d0568000f007b2000100320010
:1017ec00110020000100780000000600881f78001e
:1017fc0004a9a9006e2cef00702cef008062800011
:10180c00606288000044eb006062800022c1b3007b
:10181c0021c62000c64407000844e800200120002f
:10182c004c2cb400f94f5400f7ff3a00546cef0005
:10183c000800780055ecb7005e6cef005f6cef00b1
:10184c00600ca900c0532a0090628800706280006e
:10185c0002c1b30021c52000b54407004f04780035
:10186c0000000600889fbe008a9fbe008c1f780077
:10187c00000578000106780082057800106280006f
:10188c00006288008044eb0009447800016280000b
:10189c0082c0b30040c4200067440700206280006f
:1018ac008a0f5000100032000844e800800020002d
:1018bc00402cb400ef4f54000e003e000904e00031
:1018cc00f2ff320040628000000e780046ccbf0070
:1018dc00804d78000980fb004f0678004f05be0054
:1018ec004f04be000000060019c0b300ef4f5400b7
:1018fc00f2ff36000904e000f2ff3a0030c0b300fa
:10190c00804d78000000eb004f0678004f05be00bc
:10191c004f04be0000000600f3ff37003c4bec0008
:10192c003cebb70002003a0010c0b3003cebb70030
:10193c000080fb000000060088c9bf008000eb009f
:10194c00050032000040e90088e9b700504c8000e7
:10195c00b080fb00504c88000100780000000600ad
:10196c00889fbe008a1f78000004eb000080fb00fb
:10197c0000004000640540007240b900500cb400f7
:10198c006062880022c1b3008000780020c620006d
:10199c002944070051638000804c8000808f5000e8
:1019ac00060032000804e800f90f5400f2ff3a0078
:1019bc004f0578004f04be0000000600a0ad2000cb
:1019cc006a0078008880fb00f68040008080400030
:1019dc00114090000004a100904098004f05780041
:1019ec004f04be0000000600f4ff3700889fbe00c5
:1019fc008a9fbe0000437800830578000044eb000a
:101a0c00e5ab200067ac2000950178000300e000f6
:101a1c00190032000604e000030032006348900015
:101a2c00814f5000110032008582e800858f5300f1
:101a3c00f5ff3a0009c1b3000404e00001003500d1
:101a4c0089c0b3000804e00004003200106280007a
:101a5c00006288000904e0000c003a000000eb0072
:101a6c004f05be004f04be0000000600430090006e
:101a7c00820f5000ecff3a0018c0b3008582e800da
:101a8c00858f5300e0ff3a00eaff37000045eb007a
:101a9c000a4478000162800082c0b30040c4200078
:101aac00e5430700206280008b0f50000d003200d0
:101abc0030628000e30f50000a0032000844e80056
:101acc0080002000402cb40088cf5400f1ff3a0075
:101adc000a80fb004f05be004f04be00000006004c
:101aec00e2ff37001ac0b3000844e8008000200071
:101afc00402cb40088cf5400e6ff3a00f4ff3700c6
:101b0c00889fbe008a1f78000005780080628000e4
:101b1c00606288000004eb006162800022c1b300a7
:101b2c0020c62000c4430700712cab0009003a000a
:101b3c00200120004c2cb4000804e800f90f5400dc
:101b4c00f5ff3a00080078004f0578004f04be00fe
:101b5c0000000600506380008a0f5000f4ff3a002a
:101b6c000880fb004f0578004f04be000000060003
:101b7c00f8ff3700800178000409a80022c0b300e8
:101b8c00020078008ee9b70030618000604c88005c
:101b9c0044618000844c88000001fd008fe9b7008f
:101bac000001fd00004d8800c34c880022ccbf0012
:101bbc0080487800a2e9b7008b69ef00e18f410003
:101bcc00080032008b09a80003007800ccff070046
:101bdc00f94f500003003200710cab0001003a00c9
:101bec008b49a80010c0b3008ae9b70000000600ba
:101bfc000200fa00889fbe008a9fbe008005780014
:101c0c0002047800e4cf5000120032000180fb0087
:101c1c0000004000e1ab200060807800a0509000f4
:101c2c008180fb00c308dd001062800080804000d2
:101c3c000162880082c0b30040c420007e430700cc
:101c4c00462cef000062800082c0b30041c420002b
:101c5c00b743070071902000914078000181fb0090
:101c6c008990200020c0b30000f17c000140e80006
:101c7c0007e9b7000080fb001841900002f07c00df
:101c8c0001c0e80007e9b7000080fb002841900084
:101c9c0002f07c0063c040000080fb000bf07c0075
:101cac0064c04000485dde000080fb000af07c0050
:101cbc0065c0400007e9b7000080fb004841900078
:101ccc0002f07c0066c0400007e9b7000080fb0012
:101cdc005841900002f07c0067c0400007e9b70053
:101cec000080fb006844900008f07c00e8c04000d5
:101cfc008000fd0007e9b7008000fd00689020001f
:101d0c001844780005ff07008880fb0080f07c00f9
:101d1c000840e9000080fb00a1c0b30001f07c008a
:101d2c0008c0e9000080fb0091c2200011f07c008b
:101d3c00634054000080fb0081c2200011f07c0045
:101d4c00644054000080fb000af07c0065405400a5
:101d5c000080fb000bf07c00664054000080fb0010
:101d6c008040eb0001f07c00674054000080fb00d9
:101d7c0091c0b30001f07c00684454000800780066
:101d8c0006e9b700804c8000ea80570079ff070015
:101d9c004f05be004f04be000080fa000000060094
:101dac000400fa00889fbe008a9fbe008c1f78003a
:101dbc008005780001057800020678001162800029
:101dcc000162880082c0b30040c420001a4307009f
:101ddc000044eb00206280008b0f50001b0032008f
:101dec000844e80001628000e8804000016288003d
:101dfc0082c0b30040c420000f430700f04f5400d2
:101e0c00f4ff3a00116280000162880082c0b300c6
:101e1c0040c42000084307000044eb0030628000ff
:101e2c00e30f5000090032000844e8000162800012
:101e3c00e88040000162880082c0b30040c42000ea
:101e4c00fd420700f04f5400f4ff3a00084e7800b2
:101e5c000000eb00e8ab200008017800804078001f
:101e6c00800478001200e000060032008140e80097
:101e7c000900e8000281e800e40f5000f7ff3a0087
:101e8c008184fb00014d780040c1b3008b460700f4
:101e9c00800078000980440008054000010d78009e
:101eac000100e0001d0032002b62880019002000a8
:101ebc00396288000062800082c0b30041c42000f7
:101ecc001b4307009a00780000c0eb00805098007c
:101edc001a0478006e805700694607001fb89700f7
:101eec00afb89700008cbe001a0078001c46780032
:101efc002c5098009a0078000000eb00e00098004d
:101f0c00da2aa800090078004f0678004f05be00b9
:101f1c004f04be000080fa000000060001007800ab
:101f2c004f0678004f05be004f04be000080fa003b
:101f3c0000000600f9ff37000400fa00889fbe007d
:101f4c008a9fbe008c1f7800000678000000eb0012
:101f5c00e1ad200080447800000478001100e0001e
:101f6c00080032008944e8000800e8008180e8009d
:101f7c00e70f5000f7ff3a00e7cf54002f00320074
:101f8c000984fb0000c3b3004c46070088004400e2
:101f9c00e4854000aaad200080357d000000e00003
:101fac0026003200094e7800eb007d0000c0eb00eb
:101fbc00c04898006b047d006e80570030460700c7
:101fcc001fb89700afb8970070049800010c9800e8
:101fdc00100c9800210c9800eb007d00310890004b
:101fec000050a100b00898006b017d0032089000f1
:101ffc0001ff2f00010060000010a00030099800c4
:10200c000001eb008b00780033c0b30061007d0051
:10201c0002004000735098000201e800f90f5100d3
:10202c00faff3a00100020004f0678004f05be0062
:10203c004f04be000080fa00000006000000eb0018
:10204c004f0678004f05be004f04be000080fa001a
:10205c0000000600f9ff37000f4de20005003a00c2
:10206c000e0cab0019003a000040eb000080fb00a6
:10207c0000000600e0c5200031c1b30090cf100075
:10208c00030036000040eb000080fb00000006005f
:10209c008829ab001800320060c5200041c0b30095
:1020ac0090cf1000f7ff3e00f0c5200051c0b300e8
:1020bc0090cf1000f3ff3e00db8aab00f1ff3a003b
:1020cc0010c0b3000080fb0000000600e0c520003b
:1020dc0031c1b30090cf1000e3ff3e008829ab0064
:1020ec0009003a00db6aab0007003a0010c0b300ed
:1020fc000080fb0000000600db6aab00e6ff3a0044
:10210c0010c0b300efff370060c5200041c0b30022
:10211c0090cf1000d4ff3e00f0c5200051c0b3009a
:10212c0090cf1000d0ff3e00db8aab00efff3200f7
:10213c000040eb00cdff3700889fbe00806280001e
:10214c00606288000004eb006162800022c1b30071
:10215c0020c6200038420700712cab00080032006a
:10216c00200120004c2cb4000804e800f90f5400a6
:10217c00f5ff3a00080078004f04be00000006008e
:10218c000880fb004f04be0000000600fcff370077
:10219c00d1082000e24f5000080032000900360040
:1021ac0051012000e34f50000400320011002000c8
:1021bc00e44f5000010032008000eb000100780079
:1021cc0000000600d14321000004e000fbff3200b8
:1021dc00e14f5000f8ff3a00d03520000000060017
:1021ec00f8ff3700889fbe000004be000204e00028
:1021fc000a003200810f5000030039000000eb0090
:10220c004f04be00000006000240e900e0ff07009a
:10221c0000004400808f5400f8ff310010002000b3
:10222c004f04be0000000600f7ff3700889fbe0079
:10223c008a9fbe000005be0080628000606288003c
:10224c008044eb006162800022c1b30020c62000f4
:10225c00f941070080638000002cb20001242000ab
:10226c00810f500012003200200120004c2cb400d1
:10227c008944e800f9cf5400f2ff3a0062c520000f
:10228c0012417800406180008a007800d5ff070079
:10229c000004e00016003a0000618000800d780018
:1022ac00100020004f05be004f04be0000000600c9
:1022bc0058638000880f550007003200564cec0024
:1022cc00004178008a00780008007800c5ff0700fc
:1022dc000004e000e4ff3200880d780010002000bc
:1022ec004f05be004f04be0000000600f0ff370093
:1022fc000000eb004f05be004f04be0000000600be
:10230c00ebff37000004e0001f0032000f6cef0001
:10231c0010c2b30010ecb70061c5200091407800ea
:10232c004309dd000200780011ecb700e0c5200085
:10233c0033c1b30090cf110013003e0040c5200004
:10234c0083c1b30090cf11000f003e00d356800024
:10235c0003b8a3000d003a00e4cf50000a003e0081
:10236c000274a0000200780011ecb700f0c5200048
:10237c0051c0b30090cf100003003e0003c8a3006f
:10238c0001003a00114ca80000000600e4cf5000f8
:10239c00f6ff360000000600816380000101780022
:1023ac00020cb20000042000800f5100100032001b
:1023bc000200e00002003a0090c1b30055ecb700f7
:1023cc00712ca9006e2cef00702cef006062800065
:1023dc0022c1b30021c62000d5410700546ced008a
:1023ec007062800002c1b30021c52000d0413700cb
:1023fc005e6ced000103b200f08f50000f00320054
:10240c0010c0b300bfff0700712ca9006e2cef00a9
:10241c00702cef006062800022c1b30021c6200046
:10242c00c3410700546ced007062800002c1b30020
:10243c0021c52000be413700edff37005f6ced0079
:10244c0010c0b300afff0700efff370020c620001d
:10245c000199200007000900315878003461800090
:10246c006463880072ecef00414c80000118a300fb
:10247c001d003a00708ca90070aca800d0628000de
:10248c00506388000000e800d0628800e20f400032
:10249c0039003200c508dd000110b20080638000f5
:1024ac000080a100010070008063880070cca8003f
:1024bc0070eca900712ca8006062800022c1b300ee
:1024cc0021c620009a4107005e6cec00546cec00b5
:1024dc007062800002c1b30021c520009441070046
:1024ec0010c0b30087ff3700708ca80070aca90037
:1024fc00e0628000506388005f6cec00c262800078
:10250c0002004000e06288006611b900446180005e
:10251c0004014100820f5000deff3600db8aa80068
:10252c00c508dd000110b200806380000080a100ae
:10253c00010070008063880070cca80070eca900ca
:10254c00712ca8006062800022c1b30021c620005b
:10255c00774107005e6cec00546cec0070628000fc
:10256c0002c1b30021c520007141070010c0b300a7
:10257c0064ff3700dcff3700db6aa800c508dd000c
:10258c000110b200806380000080a1000100700087
:10259c008063880070cca80070eca900712ca80096
:1025ac006062800022c1b30021c620006041070098
:1025bc005e6cec00546cec007062800002c1b300e5
:1025cc0021c520005a41070010c0b3004dff370051
:1025dc00c5ff3700889fbe008a9fbe000005be0065
:1025ec0080628000606288000004eb006162800001
:1025fc0022c1b30020c620000f410700712cab0094
:10260c0009003a00200120004c2cb4000804e8001a
:10261c00f90f5400f5ff3a00080078004f05be0092
:10262c004f04be0000000600506380008a0f50006b
:10263c00f4ff3a00606380008b0f5000f1ff3a000a
:10264c000880fb004f05be004f04be0000000600d2
:10265c00f5ff3700ec874700889fbe008a9fbe00bd
:10266c008c9fbe008e1f78008044780081457800d6
:10267c000000eb0022af20008040780000047800be
:10268c001200e000080032008140e8000800e80079
:10269c000281e800e60f5000f7ff3a00e6cf500049
:1026ac00920032000184fb00c0c0b30083440700d9
:1026bc00800078000806440078044600aaad20008b
:1026cc0000347d000000e000880032000904e000c6
:1026dc0024003a00c0ff2f008a29b400824c8000ed
:1026ec00a2009800e8007d008a09ed00504c88009b
:1026fc0010407800f0409800e8007d008a09ed0059
:10270c00504c880010407800e04098008aa9ed00f9
:10271c0088c9bf006840400088e9b700e8007d0028
:10272c00a040980068007d002040900063440700a2
:10273c00800478000000e00074003a0068007d001e
:10274c006044070009347d00400020004f077800ea
:10275c004f06be004f05be004f04be00cf00b100b7
:10276c000000060040618000a000980068007d0019
:10277c00c14c80003100980068017d0006c9bf0083
:10278c000749b50071c8b3000140400020419800d2
:10279c0068007d00204090004844070080047800c9
:1027ac000000e000e5ff320068007d0009087800b9
:1027bc004658dd000034a000804c780089c9bf0069
:1027cc00004040009044980082992000124178000b
:1027dc00a244980099c9bf00b044980081c220005f
:1027ec0091407800c144980092c2200012417800b8
:1027fc00d24498000b9920009b457800eb4498003c
:10280c00a2c9bf00f04498006881440006c9bf000b
:10281c00e1c7b300814f500008003e0083902000b8
:10282c000040e80006e9b7000080fb0060d97900a1
:10283c0006c9bf00814f5000f9ff36000749ed0073
:10284c0007e9b700e14f4000090032008200780030
:10285c008390200002c050000080fb00e0d879007b
:10286c000749ed0007e9b700e14f4000f9ff3a00d6
:10287c00f8044600acad200069047d00768057005a
:10288c00ff4307005fb09700efb09700400498003b
:10289c005104980069007d00300090007881570049
:1028ac00f78057003efd07000004e00038003a00b6
:1028bc0069007d00100078000244070069007d006b
:1028cc00004407000000eb0080347d004000200035
:1028dc004f0778004f06be004f05be004f04be00e8
:1028ec00cf00b100000006009eff37004000200022
:1028fc004f0778004f06be004f05be004f04be00c8
:10290c00cf00b1000000060096ff370068007d0084
:10291c000908780008fc0700f043b200c658dd0037
:10292c0080cc700004fc07009044980002fc070067
:10293c00a044980000fc0700b0449800fefb070080
:10294c00c0449800fcfb0700d0449800fafb070039
:10295c008045e900eb449800f7fb0700f044980031
:10296c00688444008849e200c1ff3200f2fb070092
:10297c00005c78008849e200bdff3200eefb0700e6
:10298c00005c78008849e200f8ff3a00b8ff370095
:10299c000409a900f0c7b30006e9b7000047eb0033
:1029ac000e00780007e9b7001fe897000080fb00d5
:1029bc0000004000edab200060847e00e0c0b3005e
:1029cc00be43070000057800600498000000e0009a
:1029dc001d003a0010002000306288000062800068
:1029ec0082c0b30041c42000514007001fe897008b
:1029fc000080fb000000400060807e00b1430700b7
:102a0c001fe897000080fb00000040000ab07e0029
:102a1c0069007e0010007800aa43070069007e0060
:102a2c00a84307008a347e00400020004f0778003e
:102a3c004f06be004f05be004f04be00cf00b100d4
:102a4c000000060047ff37001fe897000080fb00de
:102a5c000000400060807e0011af200091407800a3
:102a6c00614898001fe897000080fb0000004000c0
:102a7c000d0040009000780042618000c200980078
:102a8c00100078007e4898001fe897000080fb003b
:102a9c00000040000d004000900178009308900069
:102aac00f28f2f008280600001a0a0009109980095
:102abc00900078001108900000b0a10090089800d8
:102acc0010c0b300004d780000c8b300104598004a
:102adc00f1cabf00204598000040e800f1eab700b9
:102aec0069007e00604090003045980069007e00cf
:102afc0070409000404598005e45980087fb0700a9
:102b0c00604598007b45980029ccbf00004d98008b
:102b1c0081c2200091407800114d980000c0eb005c
:102b2c00204d9800c0cfb300304d98004e4d98000a
:102b3c0090c0b300504d980072805700504307006e
:102b4c001fe897000080fb000000400060827e00c0
:102b5c007fb097008fb89700d21f2c00f3ff2f0087
:102b6c000000410081804900200298003102980049
:102b7c00100020004f0778004f06be004f05be0026
:102b8c004f04be00cf00b10000000600f5fe370078
:102b9c000200fa00889fbe008a9fbe008045780024
:102bac000104780002457800830478000100780065
:102bbc00d3fb0700f94f50000700320081638000ff
:102bcc00010cb20000042000808f50001e00320067
:102bdc000100e0001c0032004261800004c8b30018
:102bec00880178008040eb00014078007ffb0700f3
:102bfc000004e00009003200e24f550022003200d0
:102c0c006a8157000800be0016fb07000004e000b4
:102c1c0014003a00e14f5500230032000800be00ba
:102c2c0082fd07000004e00011003a0010cdb30053
:102c3c0088e9b700200020004f05be004f04be00fd
:102c4c000080fa0000000600880c78000000eb0001
:102c5c004f05be004f04be000080fa0000000600c5
:102c6c00f9ff37006ff097000004e000ebff3a002b
:102c7c000000eb004f05be004f04be000080fa00c0
:102c8c0000000600f0ff370011c0b3000b407800c5
:102c9c0070fe07004f05be004f04be000080fa0016
:102cac0000000600e8ff37008a4078000b407800ef
:102cbc0068fe07004f05be004f04be000080fa00fe
:102ccc0000000600e0ff3700881f7800300020006d
:102cdc003062880044acef00106280000062880013
:102cec000044eb000062800082c0b30041c42000ad
:102cfc008f3f07000844e80080002000402cb400ff
:102d0c00f04f5400f7ff3a004f0478000000060023
:102d1c00889fbe008a9fbe00004578003008800066
:102d2c003cebb7000469ef00d1568000da2aef00c3
:102d3c00dc2aef000000220080806000d05680006a
:102d4c0000d0a10001007000d0568800e0b3200034
:102d5c00a1b820000048eb000080e800808f5000f4
:102d6c00fcff3a000a04e00004003a00c05880005e
:102d7c000000e00001003200d2420700182bef00e7
:102d8c008004eb00e8ad2000880578000a04e00020
:102d9c0007003a00180078000000e0000400320040
:102dac0010007800c742070018007800c5420700e1
:102dbc00801deb008904e8000884e800e78f5400cc
:102dcc00f2ff3a008004eb0028af20008805780061
:102ddc000a04e00007003a00180078000000e00048
:102dec000400320010007800b6420700180078008a
:102dfc00b4420700801deb008904e8000884e80059
:102e0c00e68f5400f2ff3a000004eb00e9ab20001f
:102e1c00890578000a04e00004003a0019007800e3
:102e2c000000e00001003200a6420700801deb000c
:102e3c000804e8008984e800e40f5400f5ff3a0028
:102e4c00a1ff07004f05be004f04be0000000600a6
:102e5c0010c0b300aeff07007162800002c1b30066
:102e6c0020c52000f43e070091628000c0532a0068
:102e7c00808f50000e0032005cfa070080ac2000fe
:102e8c00c1ad20000048eb0064004000810f5000f1
:102e9c00fcff3a0000b0200081b120000088eb005c
:102eac0064004000808f5000fcff3a0000000600d8
:102ebc0050c5200091c1b30090cf1000efff32003d
:102ecc0004a9a80080ac2000c1ad2000edff3700a4
:102edc000800fa00881f7800ea80570062be2800bc
:102eec0007000900b25878008100b1000004eb0023
:102efc008200200088f707000000e00001003a0083
:102f0c0018002000080078004f0478000080fa00b8
:102f1c0000000600889fbe008a1f7800000578001c
:102f2c0080628000606288000004eb0061628000b7
:102f3c0022c1b30020c62000bf3e0700712cab009d
:102f4c0009003a00200120004c2cb4000804e800d1
:102f5c00f90f5400f5ff3a00080078004f0578008f
:102f6c004f04be00000006008200200021c6200095
:102f7c000a00780068f707000000e000f1ff3a0053
:102f8c000880fb004f0578004f04be0000000600cf
:102f9c00f5ff3700af05b000889fbe008a9fbe00ca
:102fac008c9fbe008e1f78000047eb000004780059
:102fbc00a0fb2f0000804700314207005f9e970066
:102fcc00ef9e9700da4aab000d0032006457800088
:102fdc00755780000402560085825e0002af200007
:102fec00124178000281fb000300200040422f00b8
:102ffc000010b800800f5200818f5a0035003e003f
:10300c000800e00023003a0004c9bf000008a30038
:10301c0027003a00d25680000208a30093003a0021
:10302c000218a300b9003a000200e0002e0135009e
:10303c000278a30054073200daeaa9008acbbf0059
:10304c0088e9b7008bcbbf0089e9b700915c8000a1
:10305c00814c8800d25c8000e35c8000c24c88000c
:10306c00d34c8800f45c8000055d8000e44c880043
:10307c00f54c8800c3042000030078004f0778004b
:10308c004f06be004f05be004f04be00af05b10099
:10309c00000006006140b80071005000e08058004c
:1030ac0014062000840f5000e08f58000c003600ee
:1030bc008001eb00030078004f0778004f06be003c
:1030cc004f05be004f04be00af05b1000000060066
:1030dc00f0ff37000e0ca900da4aa900c8ff370030
:1030ec0000600100ee02370064033700f0ff370088
:1030fc00efff3700eeff3700b3033700ecff37006c
:10310c00e8033700eaff3700e9ff370032033700e6
:10311c00d6033700e6ff3700e5ff3700e4ff370042
:10312c00e3ff3700e2ff37006c023700e0ff3700a7
:10313c00dfff3700be043700ddff3700dcff370050
:10314c00dbff37003804370074043700d8ff370032
:10315c00d7ff3700d6ff37003c033700d4ff3700ca
:10316c00d3ff3700d2ff370013043700b902370002
:10317c00cfff3700ceff3700cdff3700ccff370035
:10318c00cbff3700caff3700c9ff3700c8ff370035
:10319c00c7ff3700c6ff3700c5ff3700c4ff370035
:1031ac00c3ff3700680237005d0237009004370018
:1031bc00100437006d043700f9023700a8043700fb
:1031cc00a003370049043700b9ff3700b8ff3700b8
:1031dc00b7ff3700b6ff3700b5ff3700b4ff370035
:1031ec00b3ff3700b2ff3700b1ff3700b0ff370035
:1031fc00afff3700aeff3700adff3700acff370035
:10320c00abff3700aaff3700a9ff3700a8ff370034
:10321c00a7ff3700a6ff3700a5ff3700a4ff370034
:10322c00a3ff3700a2ff3700a1ff3700a0ff370034
:10323c009fff37009eff37009dff37009cff370034
:10324c009bff37009aff370099ff370098ff370034
:10325c0097ff370096ff370095ff370094ff370034
:10326c0093ff370092ff37000f023700f8af9f0033
:10327c00ebad20001b0478000800e00011003200c8
:10328c0018089000a80890000001560081815e008b
:10329c00770133000200be00e1f4070002a02b000e
:1032ac00b375240009f507000000e000e8003400c5
:1032bc0018007800834107001b007800814107004b
:1032cc00800deb007faa97000402e800f4af9f008a
:1032dc008b85e800e70f5200e6ff3a008040eb00d8
:1032ec00e0ad20001000e00005003a008140e8004d
:1032fc000080e800e7cf5000faff3a00da0aa90094
:10330c00d25680000218a30047ff32000002eb00e7
:10331c00e9ab2000090178000904780092007800dc
:10332c000100e0000e003200e10190000300e0001b
:10333c000b0032001108900000b8a3007d003a0089
:10334c0021009000b10090000000560081805e00ca
:10335c0025e02300850f5000e08f58007d003e00d3
:10336c000402e8000884e8000281e800e40f52003f
:10337c00eaff3a00e8ab200069ac200018027800a4
:10338c000400e0000700320034015600a4815e0006
:10339c008096280091002000800f5100818f5900e9
:1033ac003c003e000884e800888f5400f3ff3a008c
:1033bc008041eb00a35f9f0003407800aaad200082
:1033cc000007eb00899020000080fb00000040000b
:1033dc0078004000a4ad200060007a000000e000fe
:1033ec000d00320030009000a5f92f008f824200b2
:1033fc000581e800e48042001af907000004e000af
:10340c00aa0532004f5997000204e000ce053200a5
:10341c00e24f5100320132002f5a97000440e8006d
:10342c00a05f9f00e54f5000e7ff36008042eb00a5
:10343c00a55f9f001062800000628800016280001e
:10344c0082c0b30040c420007b3d0700386280007e
:10345c00e20f540047053200af5897008140e80056
:10346c00a15f9f0080002000402cb400efcf5000e3
:10347c00f2ff36008041eb00a35f9f00f20ae200ee
:10348c007f013200d25680000200e000e8fe3d00d1
:10349c0015003700a45090008180fb00c308dd00ac
:1034ac0010628000808040000162880082c0b300fe
:1034bc0040c42000603d070030628000e10f5000e6
:1034cc00f500320018007800600090000000e00069
:1034dc0001003200fb40070018007800f94007009b
:1034ec00000ceb00afff3700805980009159800031
:1034fc000000560081805e0005802700850f50007b
:10350c00e08f5800cafe3600a0ccb30088e9b700a3
:10351c008ea9ef00a00320004f0778004f06be00d5
:10352c004f05be004f04be00af05b1000000060001
:10353c00d8fe370021009000b1009000000056002a
:10354c0081805e00f5c32900850f5000e08f580084
:10355c0083ff36000040eb00a05f9f0085902000a9
:10356c0007c9bf008080fb003341780082f07a00ed
:10357c000040e80007e9b7002f5a97000440e80024
:10358c00a05f9f00e54f5000f5ff36000040eb00b8
:10359c00a05f9f006b9020009b4578000b80fb0088
:1035ac0033f07a008b45e9000b00780006e9b70090
:1035bc002f5997000240e800a05f9f00e74f500092
:1035cc00f6ff3600980078001108900000b0a100ba
:1035dc009008980098017800130990004810de00bc
:1035ec0067404000670060004800dd00f18f2f004d
:1035fc000101610000017100920998001800780027
:10360c002c0098003d00980018017800920890005a
:10361c000070200080846000a4033200a1f92f0008
:10362c008f8040000080eb0052f90700030120005e
:10363c00030078004f0778004f06be004f05be0010
:10364c004f04be00af05b1000000060091fe37002c
:10365c00b80c90000902b2001aff3a000e10a1003b
:10366c00484d9000f94f5500d3043200e14f45000e
:10367c0090003200894178008a84fb000a4078006f
:10368c0022c1b3000440bc00816280008100410073
:10369c006162880022c1b30020c62000f3b79f00ee
:1036ac00e53c070082638000820078000120b200b4
:1036bc00ffb1970095043a00768044001b0040004f
:1036cc00114098000a45e800e1c061004208dd00a5
:1036dc000e24a100004777000e28a30002003a0038
:1036ec00f84f5500e4ff36001b0478004a4c980054
:1036fc004208dd000e24a100004777000e28a3002d
:10370c00f0fe32000e18a3000d0b3a00ffa8970034
:10371c000184400069c2b3006190200091407800a0
:10372c000181fb008590200064004400a4ad2000c2
:10373c00e0017a003340900000f17a008145e90005
:10374c000b00780006e9b7000b80fb0043419000aa
:10375c0002f07a0081c5e9000b00780006e9b70099
:10376c000b80fb007342900004f07a00e3c550001c
:10377c000b00780006e9b7000b80fb00634190005a
:10378c0002f07a00e4c550000b00780006e9b7009f
:10379c000b80fb00134a900004f07a00e5c5500042
:1037ac000b00780006e9b7000b80fb000349900082
:1037bc0002f07a00e6c550000b00780006e9b7006d
:1037cc000b80fb00234a900004f07a00e7c5500000
:1037dc000b00780006e9b7000b80fb003349900022
:1037ec0002f07a00e8c550000b00780006e9b7003b
:1037fc000042eb00a45f9f0013017800234090006f
:10380c000004e000d0033a007f889700a1f92f0054
:10381c008f804000d7f8070060c2b30080cf5400ff
:10382c00a30c32008980fb0081804000d0b32000c3
:10383c002f5997008270780064004400a3ad2000db
:10384c0060817900e0b320003241900082707800f2
:10385c00000120004f0778004f06be004f05be0048
:10386c004f04be00af05b1000000060009fe370092
:10387c0061006100010020008301d1000281d300ae
:10388c00020070008380700065f307000001be0029
:10389c0091f3070081fe3700200020003062880081
:1038ac000062800082c0b30041c42000a03c07002d
:1038bc0004ff370078009000880890000000560044
:1038cc0081805e00f2e12400820f5000e08f5800ee
:1038dc00fd043e00894078004a4c980084ff370074
:1038ec002f5997008281fb00038041007800400033
:1038fc0060007d00a000900040618000808f50002f
:10390c006c043200689020001844780003f807001b
:10391c008880fb0080f07c008845e9008b80fb00f0
:10392c00a0c0b30080f07c0088c5e9000b80fb00d0
:10393c0091c2200011f07c00e34554000b80fb0089
:10394c0081c2200011f07c00e44554000b0078008b
:10395c0006e9b7000b81fb00a1f92f008f80400016
:10396c003180fb00000040007800400060027d00c8
:10397c00d442900005f17c00e54554000b00780022
:10398c0006e9b7000b80fb004441900002f07c007c
:10399c00e64554000b80fb000ef07c00e74554001c
:1039ac000b81fb0090c0b30000f17c00e845540093
:1039bc000b00780006e9b7007290200012417800e5
:1039cc008281fb0030c0b30080f17c000240e80033
:1039dc000080fb000ef07c0002c0e80007e9b70095
:1039ec000080fb00e441900003f07c006340410048
:1039fc0007e9b7000080fb00f442900005f07c0062
:103a0c00644141000200780007e9b70024009000ef
:103a1c0058f80700af5897000180fb0000004000e9
:103a2c007800400060007d0010007800a53f070082
:103a3c002f5997000280fb000000400078004000e6
:103a4c0060007d000008eb009e3f0700af59970017
:103a5c000380fb0000004000780040000e307d0029
:103a6c00000120004f0778004f06be004f05be0036
:103a7c004f04be00af05b1000000060085fd370005
:103a8c000340780041af20000040e800a05f9f0099
:103a9c00e64f5000cb0432003100e000faff320058
:103aac00d256800078fe370004c9bf000038a3004e
:103abc00a7083a0020ccb30088e9b70030072000f3
:103acc004f0778004f06be004f05be004f04be00e6
:103adc00af05b100000006006efd37000099200014
:103aec000cfd0700a05f9f00f94f500070fd3200e5
:103afc0051638000c14c880010c0b30088e9b70046
:103b0c00300220004f0778004f06be004f05be0064
:103b1c004f04be00af05b100000006005dfd37008c
:103b2c0020ccb30088e9b700700320004f07780061
:103b3c004f06be004f05be004f04be00af05b100de
:103b4c000000060053fd3700d15680000000220013
:103b5c000084600056fd3a0055ccbf00f94f500070
:103b6c001500320022c1b3000440bc008162800009
:103b7c00810041006162880022c1b30020c6200090
:103b8c00ad3b070070cca80070eca8006062800010
:103b9c0022c1b30021c62000e53b070090c1b30051
:103bac0055ecb7007062800002c1b30021c5200043
:103bbc00df3b070004a9a900a85f9f00084078001c
:103bcc0022c1b3000440bc0081628000810041002e
:103bdc006162880022c1b30020c62000963b07001a
:103bec00712cab002b023a00af5997000340e80050
:103bfc00a05f9f00f84f5000f1ff36000489a80029
:103c0c00c05880000000e000020032002d3f070089
:103c1c00182bef00844c8000954c8000e4588800f1
:103c2c00f55888008fc9bf0020ebb70010c0b30057
:103c3c008ee9b700800220004f0778004f06be00c7
:103c4c004f05be004f04be00af05b10000000600da
:103c5c0010fd370004c9bf00e840600006083a00b8
:103c6c0020ccb30088e9b7000409a900fbc7b30056
:103c7c000b00780006e9b7000100780007e9b700ef
:103c8c00400320004f0778004f06be004f05be00d2
:103c9c004f04be00af05b10000000600fdfc37006c
:103cac008042eb00a55f9f0005407800a3ad20008b
:103cbc000082eb000080fb00c200dd0062022000ed
:103ccc0001014100a5ad200062807a00e10f4000a7
:103cdc00040032000180420050609000a249e300d1
:103cec002b003200af5897000140e800a05f9f0006
:103cfc00e54f5000efff36000041eb00a25f9f0044
:103d0c003dcbbf00a249e3000905320012002000a0
:103d1c00f3b3200064022000a25f9f00840f5100c7
:103d2c00e3fc320082007800134078000201e800c6
:103d3c008381e800a249e300f7ff3a0001804000cc
:103d4c00e2b32000604079008001eb000004e00049
:103d5c0002003200a2e9b700430320002f5a97005b
:103d6c000480fb00000040008040eb0001707900f3
:103d7c00030078004f0778004f06be004f05be00c9
:103d8c004f04be00af05b10000000600c1fc3700b7
:103d9c008849e2002f073a0004b17900d1ff3700bf
:103dac00009920005bfc0700f94f50000f0b32000c
:103dbc0050ccb30088e9b700b00320004f0778005f
:103dcc004f06be004f05be004f04be00af05b1004c
:103ddc0000000600affc3700daaaa900dacaa80076
:103dec000061800046f70700a05f9f00f94f50006c
:103dfc000100320068f907008299200063be280098
:103e0c00070009003359780060b2200024c0b300c9
:103e1c00904f12008b083200d05680004d00de000f
:103e2c000000a2006140600088e9b700d0042000c7
:103e3c004f0778004f06be004f05be004f04be0072
:103e4c00af05b1000000060092fc37009303200080
:103e5c008849e20088fc3a00db0aa80003007800dd
:103e6c004f0778004f06be004f05be004f04be0042
:103e7c00af05b1000000060086fc3700aef6070067
:103e8c00a0ef9f00acf6070080ef9f00aaf607009a
:103e9c000080fb0008f02f00080666000006760084
:103eac00a5f60700e0e79f004800dd00fc0fb2001c
:103ebc0000067600a0f607000080fb0008056500f0
:103ecc00000575009cf60700c0e79f008082fb0090
:103edc00e5b79f004828dd00fa0fb2000005750019
:103eec0095f60700a0e79f0093f6070000477800bf
:103efc000fe897000038a3000c0032008040eb0064
:103f0c00a15f9f000144780069ab20008af607008e
:103f1c008880fb0080f07c002f5997000244e80059
:103f2c00a85f9f00e74f5400f8ff36008fe9970019
:103f3c000348a3000c0032000042eb00a45f9f007a
:103f4c0004447800e9aa20007bf607008880fb0077
:103f5c0080f07c00af5a97000544e800a85f9f00f2
:103f6c00e74f5400f8ff3600c04c8000e10f4000d2
:103f7c0058013200e50f460056013e002fe997002c
:103f8c00e3466100e1cf5600ef063200406180004d
:103f9c00800f5600cc073a008a4c88006c4c880085
:103fac0020c0b3008ee9b700500320004f07780003
:103fbc004f06be004f05be004f04be00af05b1005a
:103fcc000000060033fc37008041eb00a35f9f002c
:103fdc000340780083982000004178000080fb00ab
:103fec00f000400068004000e0f079000241e80079
:103ffc0002407800e74f5100f8ff360080c0b30054
:10400c00a05f9f0000992000c2fb0700a05f9f00eb
:10401c00f94f5000dd09320054638000744c880065
:10402c008869ef00700120004f0778004f06be0032
:10403c004f05be004f04be00af05b10000000600e6
:10404c0014fc370010c0b30088e9b7004002200010
:10405c004f0778004f06be004f05be004f04be0050
:10406c00af05b100000006000afc3700e098200004
:10407c0025c0b30090cf1200cc01320002290700fa
:10408c008001eb00030078004f0778004f06be005c
:10409c004f05be004f04be00af05b1000000060086
:1040ac00fcfb37000489a9008849e200ca033a00e6
:1040bc00734c8000436188000469a800fc28070049
:1040cc0055ccbf0022c1b3000440bc00816280000b
:1040dc00810041006162880022c1b30020c620002b
:1040ec00553a070070cca90070eca90024c620003a
:1040fc0075c1200007000900355a78006062800005
:10410c0022c1b30021c62000893a07005063800009
:10411c000061880004a9a800706380004800de00dc
:10412c006f4060000040e80056ecb70018f807003c
:10413c0080007800c062880000638000e1016000ac
:10414c000c003a006608b900426180000000410092
:10415c000000e800d06288000201e800e2628800fa
:10416c008001fd005eecb7005fecb7008001fd0044
:10417c00600ca80010c0b30062f8070070628000e9
:10418c0002c1b30021c52000693a0700db0aa80070
:10419c0031618000014d8800a00320004f0778009a
:1041ac004f06be004f05be004f04be00af05b10068
:1041bc0000000600b7fb370088c9bf00e3032000ee
:1041cc00adfb3200f54f4000db03320060ccb30096
:1041dc0088e9b700030078004f0778004f06be004f
:1041ec004f05be004f04be00af05b1000000060035
:1041fc00a8fb370004c9bf000038a30055033a00e0
:10420c0020ccb30088e9b700900320004f0778005a
:10421c004f06be004f05be004f04be00af05b100f7
:10422c00000006009bfb37008040eb0030c3b3005e
:10423c008f3707008040eb0040c3b3008c3707007a
:10424c00f1c0b300f0222000b9370700e09820003d
:10425c0013c0b30090cf1100aa0332000489a90047
:10426c008849e2001407320055ccbf0022c1b300cc
:10427c000440bc00816280008100410061628800c2
:10428c0022c1b30020c62000eb39070070cca80077
:10429c0070eca8006062800022c1b30021c620002f
:1042ac00233a070090c1b30055ecb7007062800050
:1042bc0002c1b30021c520001d3a070004a9a900c2
:1042cc008ea9ef00a0ccb30088e9b700a0032000b2
:1042dc004f0778004f06be004f05be004f04be00ce
:1042ec00af05b100000006006afb37008849e20008
:1042fc008402320010ccb30088e9b700e003200040
:10430c004f0778004f06be004f05be004f04be009d
:10431c00af05b100000006005efb3700809920005d
:10432c00fcfa0700a05f9f008849e20060fb3a009e
:10433c00f94f50005efb320050638000804c8800c7
:10434c001acbbf0088e9b7008969ef00c0042000d0
:10435c004f0778004f06be004f05be004f04be004d
:10436c00af05b100000006004afb3700dbaaab002a
:10437c004ffb3a0004c9bf000038a3009f02320073
:10438c008098200022c0b300904f11009b023a008d
:10439c0073b22000249a200007000900b459780059
:1043ac00dbcaa80010c0b3008ee9b700d0c0b300c0
:1043bc008fe9b700a0aa21003061880045b3200026
:1043cc00209a200007000900b05a78004028070006
:1043dc00800220004f0778004f06be004f05be003c
:1043ec004f04be00af05b1000000060029fb3700ea
:1043fc00da4aa9008849e20051023a000e0ca900e1
:10440c0089c9bf00bff707008869ef00830320004c
:10441c00030078004f0778004f06be004f05be0022
:10442c004f04be00af05b1000000060019fb3700b9
:10443c00d15680006880600063053a0034fa0700aa
:10444c00d00320004f0778004f06be004f05be007a
:10445c004f04be00af05b100000006000dfb370095
:10446c0004c9bf000038a30049063a0020ccb300b1
:10447c0088e9b700c00320004f0778004f06be0044
:10448c004f05be004f04be00af05b1000000060092
:10449c0000fb3700716ca9006062800022c1b30080
:1044ac0021c62000a2390700cffd37006200900022
:1044bc00043d07001800780069009800a1f92f004e
:1044cc008f8040000080eb00aaf50700030120005c
:1044dc0057fc37000040eb00a05f9f0000417800c4
:1044ec00e3ad2000930078000100e00003003200ef
:1044fc0031009000800f5500660032000241e80048
:10450c00a25f9f008381e800e74f5100f5ff3a005e
:10451c00afe8970063c06000e14f50001704320011
:10452c00afe29700e1cf52004e003600d1f92f00d8
:10453c000180470080f607000004e000070332000a
:10454c005f5897008080fb0081804000e480400031
:10455c00a3ad200061817900b20890000140a10058
:10456c0031099800fef407005f5897000080fb00ab
:10457c000000400064004000a4ad200060007a0000
:10458c008598200095427800254098005f58970048
:10459c000080fb00000040006400400060007a00d6
:1045ac00afe89700314898005f5897000080fb00f7
:1045bc00000040006400400060007a000fe99700a2
:1045cc00224898005f5897000080fb0000004000d4
:1045dc0064004000e0007a00cc009800e0007a0013
:1045ec00ba009800e0007a00afe197000340e900c0
:1045fc00c04098005f5897000080fb00000040000e
:10460c006400400060007a003e4098005f589700bc
:10461c000080fb00000040006400400060047a0051
:10462c0088c9bf00a53c070080047800000c780006
:10463c000000e0001a0732000040eb00a05f9f0072
:10464c005b4c80008c9820001c4678000c04e00029
:10465c001e003a005b4c88000c00780088e9b7001b
:10466c00da0aa800406180008a0f5000760a3200f6
:10467c008a4c8800500320004f0778004f06be007c
:10468c004f05be004f04be00af05b1000000060090
:10469c0080fa370031409000804f570097ff3a0066
:1046ac0002407800aef407007727070000002000d6
:1046bc004f0778004f06be004f05be004f04be00ea
:1046cc00af05b1000000060072fa3700af5c97002e
:1046dc005f5897000080fb00000040006400400021
:1046ec00a1ad2000608078000984fb001004440018
:1046fc0091f40700004c78008944e800a95f9f0002
:10470c008849e200d3ff3200af5c97005f589700f6
:10471c000080fb000000400064004000a1ad2000c0
:10472c00608078000984fb001004440082f40700c8
:10473c00004c78008944e800a95f9f008849e2009a
:10474c00e2ff3a00c3ff370007c9bf008080fb00bf
:10475c003242780084f07a000040e80007e9b700a4
:10476c002f5897008040e800a15f9f0023409000e5
:10477c00814f500024fc360007c9bf008080fb002d
:10478c003242780084f07a000040e80007e9b70074
:10479c002f5897008040e800a15f9f0023409000b5
:1047ac00814f5000e8ff3e0017fc3700504c800052
:1047bc001004e00031fe3a00614c8000804c800017
:1047cc0084f70700f94f500037003200044d800089
:1047dc0004e8a300f6043200708ca90070aca900a8
:1047ec00710ca800534c8000a34090008107b200cc
:1047fc00c508dd0070638000f20f2f00020060001e
:10480c00010070007063880093409000cc08dd00bc
:10481c00f2ff20000200600001007000706388004d
:10482c0013409000000fb2004400de008163800052
:10483c0002ff2f008280600080807000a3c9bf003f
:10484c006eecb7004f20de004a00dd0001a0a10095
:10485c008080700081638800234090004200de005d
:10486c00610060004b00dd0001b0a1008080700091
:10487c0081638800614c800061638800824c8000f9
:10488c00526388008fc9bf0072ecb7006062800071
:10489c0022c1b30021c62000a5380700fa26070064
:1048ac008001eb00f7fd370023f60700f94f5000ad
:1048bc00f2fd3200712ca80070cca80070eca8009e
:1048cc000040eb00a05f9f002ec6200080407800c7
:1048dc000080fb000e0040000048eb008140e80027
:1048ec0001407800e7cf5000f9ff360080c0b300dc
:1048fc00a05f9f00546cec007062800002c1b3009a
:10490c0021c520008a380700b0ff37001b0478004f
:10491c0048009000e40f400012003200e30f40000a
:10492c000e0032005163800038009000808f5000e0
:10493c000c0032000288a30062fb3a00f18f9f004a
:10494c00f680440088804000114090000004a100d3
:10495c009040980013c0b3005afb37000288a300a4
:10496c00f0ff3a00890044000040eb00f050980042
:10497c0054fb3700300020003062880044acef005c
:10498c000062800082c0b30041c420006838070078
:10499c000800780088e9b700300720004f0778003e
:1049ac004f06be004f05be004f04be00af05b10060
:1049bc0000000600b7f937000e00a00009007800cf
:1049cc0088e9b70009017800f700440091417800ac
:1049dc0061c0610007003a00024078000201e80063
:1049ec008100e800f90f5100f8ff3a00f84f500031
:1049fc002c00320000cfb30088e9b70038089000d3
:104a0c006f0060002700320018089000a808900082
:104a1c000000560081805e0034422f00840f50004d
:104a2c00e08f580016013e000e00a1008041eb0003
:104a3c00e1c061004208dd000e24a10000477700b0
:104a4c000e08a3002afb3200ffa997000384410043
:104a5c0064014400a4ad2000e2007a0031409000d3
:104a6c00a2e9b700310890000050a000b0089800ef
:104a7c0062007a0030089000430320000048a30035
:104a8c008bf93200030078004f0778004f06be0008
:104a9c004f05be004f04be00af05b100000006007c
:104aac007cf937008041eb00e1ff37002f5a97006b
:104abc008481fb000380410078004000a5ad2000fc
:104acc00e0807a001100780070409000a2e9b700f5
:104adc008869ef00110078007a3b0700af58970007
:104aec000180fb000000400078004000a2ad2000d7
:104afc0060007900733b0700af5997000380fb00ff
:104b0c000000400078004000a4ad20000e307a0078
:104b1c000409a900fbc7b3000b00780006e9b70035
:104b2c000e00780007e9b700400320004f0778001b
:104b3c004f06be004f05be004f04be00af05b100ce
:104b4c000000060053f937002f5897008081fb00b6
:104b5c000380410078004000a1ad20006082780005
:104b6c00a400900040618000808f5000e704320068
:104b7c008244780014017800be5f9f0003804100de
:104b8c0078004000a3ad2000e08079002140900027
:104b9c000004e0000e0032008590200081017800b6
:104bac0007c9bf008080fb003242780084f07a0095
:104bbc000040e80007e9b7003f5897000040e800c4
:104bcc00b05f9f00a340900080cf5000f4ff3e00e8
:104bdc007f889700b5f92f0085804700e5f3070023
:104bec002f5897008081fb0003804100f8014000a2
:104bfc00a8ad200063017c00a20090004061800001
:104c0c00808f50001700320063007c001000780089
:104c1c002c3b0700af5a97000580fb0000004000ba
:104c2c007800400060007c00263b0700af589700de
:104c3c000180fb0000004000780040000e307c003a
:104c4c0003012000030078004f0778004f06be00d8
:104c5c004f05be004f04be00af05b10000000600ba
:104c6c000cf937000980fb0000004000d1b3200094
:104c7c003f5a970004f0780012017800e1b320004d
:104c8c007241900002f0780063007c001000780004
:104c9c000c3b0700af5a97000580fb00000040005a
:104cac007800400060007c00063b0700af5897007e
:104cbc000180fb0000004000780040000e307c00ba
:104ccc0003012000dfff37000080eb00f08f9f0016
:104cdc000e10a000e0fb2f0000804700e83a070010
:104cec007f9a97008fa29700140c9800250c9800bf
:104cfc00094578001b04780011c0b3004a4c980099
:104d0c007bfa37008969ef0032618000024d880020
:104d1c0020c0b3008fe9b70003618000c34c88004a
:104d2c00100320004f0778004f06be004f05be0051
:104d3c004f04be00af05b10000000600d5f83700e7
:104d4c000e0ca80088c9bf00e14f4000acfd32003a
:104d5c00f0eab70060fd2f0000804700c83a07005a
:104d6c003fa99700cfa99700625788007357880016
:104d7c00da4aa80089c9bf0062f507008869ef000c
:104d8c0083032000a2fd37000238a300c8f83200cc
:104d9c000268a300b8043200dacaa90010c0b3003c
:104dac0088e9b700400220004f0778004f06be008c
:104dbc004f05be004f04be00af05b1000000060059
:104dcc00b4f837000042eb00a45f9f00be0ae2007b
:104ddc00acf93a000440780001ac20000040e80037
:104dec00a05f9f00e44f5000910432003100e000be
:104dfc00faff3200d2568000a3f937000489a800cc
:104e0c008849e200ea06320075b22000209a2000a0
:104e1c0007000900b05a780004c9bf000058a3006d
:104e2c002b003200dbcaab0029003200dbcaa90020
:104e3c0010c0b3008ee9b70080c0b3008fe9b70093
:104e4c00024d80003261880043b32000249a200078
:104e5c0007000900b45978009d2507008302200043
:104e6c00030078004f0778004f06be004f05be00c8
:104e7c004f04be00af05b1000000060085f83700f6
:104e8c000e00a1000080eb00f08f9f00380890000e
:104e9c00ef404000ef80600002ff2f000200600036
:104eac0001007000300c98001b04780020fc2f00cf
:104ebc0000804700723a07001fa09700afa0970030
:104ecc00100c9800210c980013c0b300d8fe3700ca
:104edc0004c9bf000058a3000400320080982000d1
:104eec0011c0b30090cf10000d00320010c0b30001
:104efc008ee9b70080c0b3008fe9b700024d800087
:104f0c003261880043b32000249a20000700090076
:104f1c00b45978006e25070083022000d0ff3700bb
:104f2c0030c0b3008ee9b70080c0b3008fe9b70082
:104f3c00024d80003261880043b32000249a200087
:104f4c0007000900b459780061250700830220008e
:104f5c00c3ff37008ec9bf00a05f9f0055ccbf00b8
:104f6c0022c1b3000440bc0081628000810041007a
:104f7c006162880022c1b30020c62000ae36070053
:104f8c00db0aa90063638000634c880072ccbf000d
:104f9c008ee9b700f0c0b30094e9b70095e9b7000b
:104fac008869ef00d3022000af5897000104e0009d
:104fbc0031f832008829a800030078004f077800e8
:104fcc004f06be004f05be004f04be00af05b1003a
:104fdc00000006002ff837000469a90026acef008a
:104fec003b25070004a9a90055ccbf0022c1b30082
:104ffc000440bc0081628000810041006162880035
:10500c0022c1b30020c620008b360700716ca900aa
:10501c0090c1b30055ecb7006062800022c1b300b0
:10502c0021c62000c236070090c1b30055ecb70072
:10503c008041eb00a35f9f0080c4eb00034078002d
:10504c0008e0200022c1b3000440bc008162800053
:10505c00810041006162880022c1b30020c620009b
:10506c00753607008063800008006000880f5000d0
:10507c00140032002f5a97000440e800a05f9f00f4
:10508c00f84f5000efff360055ccbf00f94f5000e1
:10509c003b003a000489a9008ea9ef0030ccb30084
:1050ac0088e9b700a00320004f0778004f06be0028
:1050bc004f05be004f04be00af05b1000000060056
:1050cc00f4f7370061638000004d8000808f500042
:1050dc00e8ff3a00f0c2b3006e4ce300e5ff360087
:1050ec00706380004800de006f406000894f500004
:1050fc00e0ff3100804478002f58970055ecb70042
:10510c00dcff37008849e200420032000489a90024
:10511c00600320004f0778004f06be004f05be000d
:10512c004f04be00af05b10000000600d9f73700f0
:10513c008000eb0001fb37008869ef00e0032000e2
:10514c004f0778004f06be004f05be004f04be004f
:10515c00af05b10000000600cef73700ca240700e7
:10516c00000020004f0778004f06be004f05be0020
:10517c004f04be00af05b10000000600c5f73700b4
:10518c0022c1b3000440bc00816280008100410058
:10519c006162880022c1b30020c6200026360700b9
:1051ac00014d80003161880042b32000239a200019
:1051bc000700090033597800c5240700816180007d
:1051cc008180e80012c0b300a0f92f000f0040004e
:1051dc001936070072ccbf008ee9b70020c0b300af
:1051ec008fe9b70051638000c14c88002f5897009d
:1051fc0088e9b700500120004f0778004f06be0029
:10520c004f05be004f04be00af05b1000000060004
:10521c00a0f737008969ef008a29ef00624c800003
:10522c000200e00013003200504c80000000e0004f
:10523c007900320092009000908f500005003200ef
:10524c00700090000000e00073003200908f50005e
:10525c00feff3a00624c8000620c90000200780065
:10526c009839070008017800684c88000800e000b5
:10527c00edff3a008949e20001003a000489a900d7
:10528c0063032000dbcaab007bf73200dbcaa9004a
:10529c0072902000124178008280fb0085902000e3
:1052ac0060c0b30080f07a000240e8000080fb0090
:1052bc00e1ccb30001f07a0002c1e80002007800f2
:1052cc0007e9b70020ba200061be280007000900da
:1052dc00315878000041eb00a25f9f00024078003b
:1052ec006b9020009b45780023ba20008b44e9008a
:1052fc000b4578008b80fb000080fb0067001000e2
:10530c0060c0790080f07a00894578008944e90012
:10531c000241e80002407800e74f5100f4ff3600ec
:10532c0080c0b300a05f9f008005fd0006e9b700b8
:10533c008005fd0085bf9f0078f107008b80fb0086
:10534c008fba970080f07a008980fb0010c0b30000
:10535c0080f07a00e34555000b80fb0091c22000e1
:10536c0011f07a00e44555000b80fb0081c220004f
:10537c0011f07a00e54555000b80fb00b1c620000a
:10538c0011f07a00e64555000b80fb00a1c6200009
:10539c0011f07a00e74555008b80fb0000c1b3008b
:1053ac0080f07a00e84555008b80fb0090c0b3007c
:1053bc0080f07a00e94555000b00780006e9b7004b
:1053cc0050638000a1f92f008f804000e9f10700a5
:1053dc00dbeaa80020fd2f000080470028390700d9
:1053ec001faa9700afaa9700845988009559880086
:1053fc005563800005618800000120004f0778008c
:10540c004f06be004f05be004f04be00af05b100f5
:10541c00000006001ff737001202780061006200de
:10542c005200320064004100baf60700a05f9f00f2
:10543c00af5a9700f9cf520086ff3200dbcaab009f
:10544c0005003200624c8000a2589000f0c8b300f6
:10545c0080cf500080ff360000c1b3001739070021
:10546c00800178000000e0007aff3200604c800080
:10547c001000900080097800604c80001040900073
:10548c00a041980071638000cc08de00c808dd00e4
:10549c0013009000f20f2f0002006000010070005a
:1054ac009001980081638000cc08dd00f2ff2000a1
:1054bc00020060000100700090019800604c8000b8
:1054cc00200990006f0161002300900001ff2f0064
:1054dc000100600002007000a0019800614c800087
:1054ec00a1089000010fb200f2f02f000200600042
:1054fc0001007000a0019800614c8000a108900090
:10550c00cf08de00c808dd000080a100010070009b
:10551c00a0019800e6804100604c80006c004000c7
:10552c001002be008488be0020029000b0029000e1
:10553c00a4009800b5009800554c8000f501980027
:10554c00534c88008969ec00624c8000620c90001e
:10555c0002007800db38070008017800684c8800ee
:10556c000800e00030ff3a0042ff370022009000b4
:10557c0063f10700a05f9f00adff3700eef007005e
:10558c00a05f9f00e14f50000c0032002f58970095
:10559c00e44f500061003200bb23070000002000e4
:1055ac004f0778004f06be004f05be004f04be00eb
:1055bc00af05b10000000600b6f63700db0aab0001
:1055cc00f2ff3200406180008a0f50004f0732001a
:1055dc0018c0b30088679f00d7f0070090679f0042
:1055ec00d5f00700a0679f00d3f00700c0679f00ad
:1055fc00d1f00700d0679f00cff0070080457800fe
:10560c008040e800e1679f0070cdb300a349e30040
:10561c0002003e000140e800e0679f0030cbb30081
:10562c00a349e30003003e006f6097000040e800d0
:10563c00e0679f00f0c8b300a349e30003003e00fd
:10564c006f6097000040e800e0679f00b0c6b300b1
:10565c00a349e30003003e006f6097000040e800a0
:10566c00e0679f0070c4b300a349e30003003e0051
:10567c006f6097000040e800e0679f0030c2b30005
:10568c00a349e30003003e006f6097000040e80070
:10569c00e0679f00af6097001f629700af91970083
:1056ac000a01780008407800d0f007000004e00000
:1056bc0003003200c04c8000e10f40001c07320098
:1056cc00804c80000ef10700f94f500005003200ad
:1056dc0080638000000cb20001042000810f500098
:1056ec00370b3200884c800000618000800f540022
:1056fc00b40b3200642307008001eb000300780038
:10570c004f0778004f06be004f05be004f04be0089
:10571c00af05b100000006005ef6370086f007000a
:10572c008045780040618000800f55001b0b3200d3
:10573c00afe09700e1cf500053003600d2f92f00b4
:10574c0002804700fcf107000004e0008f043200e7
:10575c005f5897008080fb0081804000e48040000f
:10576c00a3ad200061817900b20890000140a10036
:10577c00310998007af007005f5897000080fb0011
:10578c000000400064004000a4ad200060007a00de
:10579c008598200095427800254098005f58970026
:1057ac000080fb00000040006400400060007a00b4
:1057bc00afe89700314898005f5897000080fb00d5
:1057cc00000040006400400060007a000fe9970080
:1057dc00224898005f5897000080fb0000004000b2
:1057ec0064004000e0007a00cc009800e0007a00f1
:1057fc00ba009800e0007a00afe197000340e9009e
:10580c00c04098005f5897000080fb0000004000eb
:10581c006400400060007a003e4098005f5897009a
:10582c000080fb00000040006400400060047a002f
:10583c0088c9bf002138070080047800000c78006c
:10584c000000e000840432000040eb00a05f9f00e9
:10585c005f5897000080fb0000004000640040008f
:10586c00a1ad2000608078009000780040c0b300ab
:10587c008048780010c0b300a05f9f008849e20008
:10588c0032003a00da0aa8000a0078009cf00700ff
:10589c00a05f9f00f94f50003fff3200bef207009f
:1058ac00f92207008869ef008499200025c62000a2
:1058bc0007000900355a78000099200021c6200005
:1058cc0007000900315878000041eb00a25f9f00ef
:1058dc0002407800a2c0b3000440bc00916180007b
:1058ec0081004100a2c0b30060c320005234070005
:1058fc00f0618000800f55009e0a3200af5997006e
:10590c000340e800a05f9f00e74f5000f1ff360016
:10591c00c30320000b68a300d7f53a0004c2b30000
:10592c0004c0650088e9b700f181410003007800ec
:10593c004f0778004f06be004f05be004f04be0057
:10594c00af05b10000000600d2f53700af5c970040
:10595c005f5897000080fb0000004000640040008e
:10596c00a2ad2000600079000984fb001004440003
:10597c00f1ef0700004c78008944e800a95f9f0014
:10598c008849e200bfff3200af5c97005f58970078
:10599c000080fb000000400064004000a2ad20002d
:1059ac00600079000984fb0010044400e2ef07005a
:1059bc00004c78008944e800a95f9f008849e20008
:1059cc00e2ff3a00afff370060b2200022c0b30004
:1059dc00904f11007c0132004e0cde0061446400db
:1059ec0084fa2f000480470065be280007000900d8
:1059fc00355878008000b1001001be00c24c880000
:105a0c00d34c88006f929700ff929700e44c88006b
:105a1c00f54c88008869ef000040eb00bcf40700ef
:105a2c000804e0002001320004a9a8000469a900c0
:105a3c00c3032000030078004f0778004f06be0018
:105a4c004f05be004f04be00af05b10000000600bc
:105a5c0090f537000409a800af5a97008580fb0029
:105a6c00c208dd004002200001004000a2ad200071
